{
  "address": "0x708525aC34dd7D5887Ba630362C37C1Bd0641Acf",
  "abi": [
    {
      "inputs": [
        {
          "internalType": "string",
          "name": "name_",
          "type": "string"
        },
        {
          "internalType": "string",
          "name": "symbol_",
          "type": "string"
        },
        {
          "internalType": "uint256",
          "name": "maxSupply_",
          "type": "uint256"
        },
        {
          "internalType": "uint256",
          "name": "maxMintPerWalletWhite_",
          "type": "uint256"
        },
        {
          "internalType": "uint256",
          "name": "maxMintPerWalletPublic_",
          "type": "uint256"
        },
        {
          "internalType": "uint256",
          "name": "mintPriceWhite_",
          "type": "uint256"
        },
        {
          "internalType": "uint256",
          "name": "mintPricePublic_",
          "type": "uint256"
        }
      ],
      "stateMutability": "nonpayable",
      "type": "constructor"
    },
    {
      "anonymous": false,
      "inputs": [
        {
          "indexed": true,
          "internalType": "address",
          "name": "whitelistAddress",
          "type": "address"
        }
      ],
      "name": "AddedToWhiteList",
      "type": "event"
    },
    {
      "anonymous": false,
      "inputs": [
        {
          "indexed": true,
          "internalType": "address",
          "name": "owner",
          "type": "address"
        },
        {
          "indexed": true,
          "internalType": "address",
          "name": "approved",
          "type": "address"
        },
        {
          "indexed": true,
          "internalType": "uint256",
          "name": "tokenId",
          "type": "uint256"
        }
      ],
      "name": "Approval",
      "type": "event"
    },
    {
      "anonymous": false,
      "inputs": [
        {
          "indexed": true,
          "internalType": "address",
          "name": "owner",
          "type": "address"
        },
        {
          "indexed": true,
          "internalType": "address",
          "name": "operator",
          "type": "address"
        },
        {
          "indexed": false,
          "internalType": "bool",
          "name": "approved",
          "type": "bool"
        }
      ],
      "name": "ApprovalForAll",
      "type": "event"
    },
    {
      "anonymous": false,
      "inputs": [
        {
          "indexed": true,
          "internalType": "address",
          "name": "previousOwner",
          "type": "address"
        },
        {
          "indexed": true,
          "internalType": "address",
          "name": "newOwner",
          "type": "address"
        }
      ],
      "name": "OwnershipTransferred",
      "type": "event"
    },
    {
      "anonymous": false,
      "inputs": [
        {
          "indexed": true,
          "internalType": "address",
          "name": "sender",
          "type": "address"
        },
        {
          "indexed": true,
          "internalType": "uint256",
          "name": "amount",
          "type": "uint256"
        }
      ],
      "name": "PublicMintEvent",
      "type": "event"
    },
    {
      "anonymous": false,
      "inputs": [
        {
          "indexed": true,
          "internalType": "address",
          "name": "removedAddress",
          "type": "address"
        }
      ],
      "name": "RemovedFromWhiteList",
      "type": "event"
    },
    {
      "anonymous": false,
      "inputs": [
        {
          "indexed": false,
          "internalType": "bool",
          "name": "isPaused",
          "type": "bool"
        },
        {
          "indexed": false,
          "internalType": "uint256",
          "name": "time",
          "type": "uint256"
        }
      ],
      "name": "SetPause",
      "type": "event"
    },
    {
      "anonymous": false,
      "inputs": [
        {
          "indexed": true,
          "internalType": "enum NftMintStage.MintStage",
          "name": "",
          "type": "uint8"
        },
        {
          "indexed": false,
          "internalType": "uint256",
          "name": "time",
          "type": "uint256"
        }
      ],
      "name": "StageChanged",
      "type": "event"
    },
    {
      "anonymous": false,
      "inputs": [
        {
          "indexed": true,
          "internalType": "address",
          "name": "from",
          "type": "address"
        },
        {
          "indexed": true,
          "internalType": "address",
          "name": "to",
          "type": "address"
        },
        {
          "indexed": true,
          "internalType": "uint256",
          "name": "tokenId",
          "type": "uint256"
        }
      ],
      "name": "Transfer",
      "type": "event"
    },
    {
      "anonymous": false,
      "inputs": [
        {
          "indexed": true,
          "internalType": "address",
          "name": "sender",
          "type": "address"
        },
        {
          "indexed": true,
          "internalType": "uint256",
          "name": "amount",
          "type": "uint256"
        }
      ],
      "name": "WhiteMintEvent",
      "type": "event"
    },
    {
      "anonymous": false,
      "inputs": [
        {
          "indexed": true,
          "internalType": "address",
          "name": "msgSender",
          "type": "address"
        },
        {
          "indexed": true,
          "internalType": "address",
          "name": "token",
          "type": "address"
        }
      ],
      "name": "Withdraw",
      "type": "event"
    },
    {
      "inputs": [
        {
          "internalType": "address[]",
          "name": "_addresses",
          "type": "address[]"
        }
      ],
      "name": "addAddressToWhitelist",
      "outputs": [],
      "stateMutability": "nonpayable",
      "type": "function"
    },
    {
      "inputs": [
        {
          "internalType": "address",
          "name": "to",
          "type": "address"
        },
        {
          "internalType": "uint256",
          "name": "tokenId",
          "type": "uint256"
        }
      ],
      "name": "approve",
      "outputs": [],
      "stateMutability": "nonpayable",
      "type": "function"
    },
    {
      "inputs": [
        {
          "internalType": "address",
          "name": "owner",
          "type": "address"
        }
      ],
      "name": "balanceOf",
      "outputs": [
        {
          "internalType": "uint256",
          "name": "",
          "type": "uint256"
        }
      ],
      "stateMutability": "view",
      "type": "function"
    },
    {
      "inputs": [],
      "name": "baseExtension",
      "outputs": [
        {
          "internalType": "string",
          "name": "",
          "type": "string"
        }
      ],
      "stateMutability": "view",
      "type": "function"
    },
    {
      "inputs": [],
      "name": "burnEnabled",
      "outputs": [
        {
          "internalType": "bool",
          "name": "",
          "type": "bool"
        }
      ],
      "stateMutability": "view",
      "type": "function"
    },
    {
      "inputs": [],
      "name": "enableBurn",
      "outputs": [],
      "stateMutability": "nonpayable",
      "type": "function"
    },
    {
      "inputs": [
        {
          "internalType": "uint256",
          "name": "tokenId",
          "type": "uint256"
        }
      ],
      "name": "getApproved",
      "outputs": [
        {
          "internalType": "address",
          "name": "",
          "type": "address"
        }
      ],
      "stateMutability": "view",
      "type": "function"
    },
    {
      "inputs": [
        {
          "internalType": "address",
          "name": "owner",
          "type": "address"
        },
        {
          "internalType": "address",
          "name": "operator",
          "type": "address"
        }
      ],
      "name": "isApprovedForAll",
      "outputs": [
        {
          "internalType": "bool",
          "name": "",
          "type": "bool"
        }
      ],
      "stateMutability": "view",
      "type": "function"
    },
    {
      "inputs": [],
      "name": "isPaused",
      "outputs": [
        {
          "internalType": "bool",
          "name": "",
          "type": "bool"
        }
      ],
      "stateMutability": "view",
      "type": "function"
    },
    {
      "inputs": [],
      "name": "lastActivity",
      "outputs": [
        {
          "internalType": "uint256",
          "name": "",
          "type": "uint256"
        }
      ],
      "stateMutability": "view",
      "type": "function"
    },
    {
      "inputs": [],
      "name": "maxMintPerWalletPublic",
      "outputs": [
        {
          "internalType": "uint256",
          "name": "",
          "type": "uint256"
        }
      ],
      "stateMutability": "view",
      "type": "function"
    },
    {
      "inputs": [],
      "name": "maxMintPerWalletWhite",
      "outputs": [
        {
          "internalType": "uint256",
          "name": "",
          "type": "uint256"
        }
      ],
      "stateMutability": "view",
      "type": "function"
    },
    {
      "inputs": [],
      "name": "maxSupply",
      "outputs": [
        {
          "internalType": "uint256",
          "name": "",
          "type": "uint256"
        }
      ],
      "stateMutability": "view",
      "type": "function"
    },
    {
      "inputs": [],
      "name": "mintPricePublic",
      "outputs": [
        {
          "internalType": "uint256",
          "name": "",
          "type": "uint256"
        }
      ],
      "stateMutability": "view",
      "type": "function"
    },
    {
      "inputs": [],
      "name": "mintPriceWhite",
      "outputs": [
        {
          "internalType": "uint256",
          "name": "",
          "type": "uint256"
        }
      ],
      "stateMutability": "view",
      "type": "function"
    },
    {
      "inputs": [],
      "name": "name",
      "outputs": [
        {
          "internalType": "string",
          "name": "",
          "type": "string"
        }
      ],
      "stateMutability": "view",
      "type": "function"
    },
    {
      "inputs": [],
      "name": "nextStage",
      "outputs": [],
      "stateMutability": "nonpayable",
      "type": "function"
    },
    {
      "inputs": [],
      "name": "owner",
      "outputs": [
        {
          "internalType": "address",
          "name": "",
          "type": "address"
        }
      ],
      "stateMutability": "view",
      "type": "function"
    },
    {
      "inputs": [
        {
          "internalType": "uint256",
          "name": "tokenId",
          "type": "uint256"
        }
      ],
      "name": "ownerOf",
      "outputs": [
        {
          "internalType": "address",
          "name": "",
          "type": "address"
        }
      ],
      "stateMutability": "view",
      "type": "function"
    },
    {
      "inputs": [
        {
          "internalType": "uint256",
          "name": "amount",
          "type": "uint256"
        }
      ],
      "name": "publicMint",
      "outputs": [],
      "stateMutability": "payable",
      "type": "function"
    },
    {
      "inputs": [
        {
          "internalType": "address",
          "name": "_address",
          "type": "address"
        }
      ],
      "name": "removeAddressFromWhitelist",
      "outputs": [],
      "stateMutability": "nonpayable",
      "type": "function"
    },
    {
      "inputs": [],
      "name": "renounceOwnership",
      "outputs": [],
      "stateMutability": "nonpayable",
      "type": "function"
    },
    {
      "inputs": [
        {
          "internalType": "string",
          "name": "uri_",
          "type": "string"
        }
      ],
      "name": "revealCollection",
      "outputs": [],
      "stateMutability": "nonpayable",
      "type": "function"
    },
    {
      "inputs": [
        {
          "internalType": "address",
          "name": "from",
          "type": "address"
        },
        {
          "internalType": "address",
          "name": "to",
          "type": "address"
        },
        {
          "internalType": "uint256",
          "name": "tokenId",
          "type": "uint256"
        }
      ],
      "name": "safeTransferFrom",
      "outputs": [],
      "stateMutability": "nonpayable",
      "type": "function"
    },
    {
      "inputs": [
        {
          "internalType": "address",
          "name": "from",
          "type": "address"
        },
        {
          "internalType": "address",
          "name": "to",
          "type": "address"
        },
        {
          "internalType": "uint256",
          "name": "tokenId",
          "type": "uint256"
        },
        {
          "internalType": "bytes",
          "name": "_data",
          "type": "bytes"
        }
      ],
      "name": "safeTransferFrom",
      "outputs": [],
      "stateMutability": "nonpayable",
      "type": "function"
    },
    {
      "inputs": [
        {
          "internalType": "address",
          "name": "operator",
          "type": "address"
        },
        {
          "internalType": "bool",
          "name": "approved",
          "type": "bool"
        }
      ],
      "name": "setApprovalForAll",
      "outputs": [],
      "stateMutability": "nonpayable",
      "type": "function"
    },
    {
      "inputs": [
        {
          "internalType": "string",
          "name": "uri_",
          "type": "string"
        }
      ],
      "name": "setBaseUri",
      "outputs": [],
      "stateMutability": "nonpayable",
      "type": "function"
    },
    {
      "inputs": [
        {
          "internalType": "uint256",
          "name": "maxMintPerWalletWhite_",
          "type": "uint256"
        },
        {
          "internalType": "uint256",
          "name": "maxMintPerWalletPublic_",
          "type": "uint256"
        }
      ],
      "name": "setMaxMintPerWallet",
      "outputs": [],
      "stateMutability": "nonpayable",
      "type": "function"
    },
    {
      "inputs": [
        {
          "internalType": "uint256",
          "name": "maxSupply_",
          "type": "uint256"
        }
      ],
      "name": "setMaxSupply",
      "outputs": [],
      "stateMutability": "nonpayable",
      "type": "function"
    },
    {
      "inputs": [
        {
          "internalType": "uint256",
          "name": "mintPriceWhite_",
          "type": "uint256"
        },
        {
          "internalType": "uint256",
          "name": "mintPricePublic_",
          "type": "uint256"
        }
      ],
      "name": "setMintPrices",
      "outputs": [],
      "stateMutability": "nonpayable",
      "type": "function"
    },
    {
      "inputs": [],
      "name": "setPause",
      "outputs": [],
      "stateMutability": "nonpayable",
      "type": "function"
    },
    {
      "inputs": [],
      "name": "stage",
      "outputs": [
        {
          "internalType": "enum NftMintStage.MintStage",
          "name": "",
          "type": "uint8"
        }
      ],
      "stateMutability": "view",
      "type": "function"
    },
    {
      "inputs": [
        {
          "internalType": "bytes4",
          "name": "interfaceId",
          "type": "bytes4"
        }
      ],
      "name": "supportsInterface",
      "outputs": [
        {
          "internalType": "bool",
          "name": "",
          "type": "bool"
        }
      ],
      "stateMutability": "view",
      "type": "function"
    },
    {
      "inputs": [],
      "name": "symbol",
      "outputs": [
        {
          "internalType": "string",
          "name": "",
          "type": "string"
        }
      ],
      "stateMutability": "view",
      "type": "function"
    },
    {
      "inputs": [
        {
          "internalType": "uint256",
          "name": "index",
          "type": "uint256"
        }
      ],
      "name": "tokenByIndex",
      "outputs": [
        {
          "internalType": "uint256",
          "name": "",
          "type": "uint256"
        }
      ],
      "stateMutability": "view",
      "type": "function"
    },
    {
      "inputs": [
        {
          "internalType": "address",
          "name": "owner",
          "type": "address"
        },
        {
          "internalType": "uint256",
          "name": "index",
          "type": "uint256"
        }
      ],
      "name": "tokenOfOwnerByIndex",
      "outputs": [
        {
          "internalType": "uint256",
          "name": "",
          "type": "uint256"
        }
      ],
      "stateMutability": "view",
      "type": "function"
    },
    {
      "inputs": [
        {
          "internalType": "uint256",
          "name": "tokenId",
          "type": "uint256"
        }
      ],
      "name": "tokenURI",
      "outputs": [
        {
          "internalType": "string",
          "name": "",
          "type": "string"
        }
      ],
      "stateMutability": "view",
      "type": "function"
    },
    {
      "inputs": [],
      "name": "totalSupply",
      "outputs": [
        {
          "internalType": "uint256",
          "name": "",
          "type": "uint256"
        }
      ],
      "stateMutability": "view",
      "type": "function"
    },
    {
      "inputs": [
        {
          "internalType": "address",
          "name": "from",
          "type": "address"
        },
        {
          "internalType": "address",
          "name": "to",
          "type": "address"
        },
        {
          "internalType": "uint256",
          "name": "tokenId",
          "type": "uint256"
        }
      ],
      "name": "transferFrom",
      "outputs": [],
      "stateMutability": "nonpayable",
      "type": "function"
    },
    {
      "inputs": [
        {
          "internalType": "address",
          "name": "newOwner",
          "type": "address"
        }
      ],
      "name": "transferOwnership",
      "outputs": [],
      "stateMutability": "nonpayable",
      "type": "function"
    },
    {
      "inputs": [],
      "name": "uri",
      "outputs": [
        {
          "internalType": "string",
          "name": "",
          "type": "string"
        }
      ],
      "stateMutability": "view",
      "type": "function"
    },
    {
      "inputs": [
        {
          "internalType": "address",
          "name": "",
          "type": "address"
        }
      ],
      "name": "whiteListedAddress",
      "outputs": [
        {
          "internalType": "bool",
          "name": "isWhiteListed",
          "type": "bool"
        },
        {
          "internalType": "uint256",
          "name": "allowedMints",
          "type": "uint256"
        }
      ],
      "stateMutability": "view",
      "type": "function"
    },
    {
      "inputs": [
        {
          "internalType": "uint256",
          "name": "amount",
          "type": "uint256"
        }
      ],
      "name": "whiteMint",
      "outputs": [],
      "stateMutability": "payable",
      "type": "function"
    },
    {
      "inputs": [],
      "name": "withdraw",
      "outputs": [],
      "stateMutability": "payable",
      "type": "function"
    }
  ],
  "transactionHash": "0xc90ab27a86eacf53397a3f03c47d621772eceb8f451fde24d314126f64354770",
  "args": [
    "Pixel Invaderz",
    "PIXINV",
    20,
    2,
    4,
    "20000000000000000",
    "40000000000000000"
  ],
  "numDeployments": 5,
  "solcInputHash": "422b89edec819ab8243a62542adf4838",
  "bytecode": "0x60c06040526005608081905264173539b7b760d91b60a09081526200002891601591906200013c565b503480156200003657600080fd5b5060405162003eca38038062003eca8339810160408190526200005991620002af565b865187908790620000729060009060208501906200013c565b508051620000889060019060208401906200013c565b505050620000a56200009f620000e660201b60201c565b620000ea565b6001600b55600d805461ff0019169055600f949094556011919091556010919091556012919091556013555050426017556016805460ff1916905562000385565b3390565b600a80546001600160a01b038381166001600160a01b0319831681179093556040519116919082907f8be0079c531659141344cd1fd0a4f28419497f9722a3daafe3b4186f6b6457e090600090a35050565b8280546200014a9062000348565b90600052602060002090601f0160209004810192826200016e5760008555620001b9565b82601f106200018957805160ff1916838001178555620001b9565b82800160010185558215620001b9579182015b82811115620001b95782518255916020019190600101906200019c565b50620001c7929150620001cb565b5090565b5b80821115620001c75760008155600101620001cc565b634e487b7160e01b600052604160045260246000fd5b600082601f8301126200020a57600080fd5b81516001600160401b0380821115620002275762000227620001e2565b604051601f8301601f19908116603f01168101908282118183101715620002525762000252620001e2565b816040528381526020925086838588010111156200026f57600080fd5b600091505b8382101562000293578582018301518183018401529082019062000274565b83821115620002a55760008385830101525b9695505050505050565b600080600080600080600060e0888a031215620002cb57600080fd5b87516001600160401b0380821115620002e357600080fd5b620002f18b838c01620001f8565b985060208a01519150808211156200030857600080fd5b50620003178a828b01620001f8565b60408a015160608b015160808c015160a08d015160c0909d01519b9e939d50919b909a919950975095509350505050565b600181811c908216806200035d57607f821691505b602082108114156200037f57634e487b7160e01b600052602260045260246000fd5b50919050565b613b3580620003956000396000f3fe6080604052600436106102e75760003560e01c8063715018a611610184578063c6682862116100d6578063e1fcd7071161008a578063ecdab32611610064578063ecdab326146107e4578063ee3743ab14610804578063f2fde38b1461081957600080fd5b8063e1fcd70714610770578063e985e9c514610786578063eac989f8146107cf57600080fd5b8063d3bcbb3c116100bb578063d3bcbb3c14610725578063d431b1ac14610745578063d5abeb011461075a57600080fd5b8063c6682862146106f0578063c87b56dd1461070557600080fd5b8063a0bcfc7f11610138578063b88d4fde11610112578063b88d4fde14610658578063c040e6b814610678578063c166d13d1461069f57600080fd5b8063a0bcfc7f146105fe578063a22cb4651461061e578063b187bd261461063e57600080fd5b80638da5cb5b116101695780638da5cb5b146105b55780638f708bcf146105d357806395d89b41146105e957600080fd5b8063715018a6146105805780637bd4f0711461059557600080fd5b80633b37d1d61161023d57806350179bae116101f15780636352211e116101cb5780636352211e146105205780636f8b44b01461054057806370a082311461056057600080fd5b806350179bae146104cb5780635dc96d16146104eb5780635fd51b371461050a57600080fd5b806342842e0e1161022257806342842e0e1461047857806347d6b593146104985780634f6ccce7146104ab57600080fd5b80633b37d1d61461045b5780633ccfd60b1461047057600080fd5b80631c18a0621161029f5780632db11544116102795780632db11544146104125780632e7b26a7146104255780632f745c591461043b57600080fd5b80631c18a062146103bc57806323b872dd146103d2578063286dd3f5146103f257600080fd5b8063081812fc116102d0578063081812fc14610343578063095ea7b31461037b57806318160ddd1461039d57600080fd5b806301ffc9a7146102ec57806306fdde0314610321575b600080fd5b3480156102f857600080fd5b5061030c6103073660046134b4565b610839565b60405190151581526020015b60405180910390f35b34801561032d57600080fd5b5061033661084a565b6040516103189190613530565b34801561034f57600080fd5b5061036361035e366004613543565b6108dc565b6040516001600160a01b039091168152602001610318565b34801561038757600080fd5b5061039b610396366004613573565b610976565b005b3480156103a957600080fd5b506008545b604051908152602001610318565b3480156103c857600080fd5b506103ae60125481565b3480156103de57600080fd5b5061039b6103ed36600461359d565b610aa8565b3480156103fe57600080fd5b5061039b61040d3660046135d9565b610b2f565b61039b610420366004613543565b610d06565b34801561043157600080fd5b506103ae60105481565b34801561044757600080fd5b506103ae610456366004613573565b611038565b34801561046757600080fd5b5061039b6110e0565b61039b611211565b34801561048457600080fd5b5061039b61049336600461359d565b611417565b61039b6104a6366004613543565b611432565b3480156104b757600080fd5b506103ae6104c6366004613543565b611881565b3480156104d757600080fd5b5061039b6104e6366004613680565b611925565b3480156104f757600080fd5b50600d5461030c90610100900460ff1681565b34801561051657600080fd5b506103ae60175481565b34801561052c57600080fd5b5061036361053b366004613543565b611a57565b34801561054c57600080fd5b5061039b61055b366004613543565b611ae2565b34801561056c57600080fd5b506103ae61057b3660046135d9565b611c07565b34801561058c57600080fd5b5061039b611ca1565b3480156105a157600080fd5b5061039b6105b03660046136c9565b611cf5565b3480156105c157600080fd5b50600a546001600160a01b0316610363565b3480156105df57600080fd5b506103ae60135481565b3480156105f557600080fd5b50610336611e20565b34801561060a57600080fd5b5061039b610619366004613680565b611e2f565b34801561062a57600080fd5b5061039b6106393660046136eb565b611ec6565b34801561064a57600080fd5b50600d5461030c9060ff1681565b34801561066457600080fd5b5061039b610673366004613727565b611ed5565b34801561068457600080fd5b506016546106929060ff1681565b60405161031891906137b9565b3480156106ab57600080fd5b506106d96106ba3660046135d9565b600e602052600090815260409020805460019091015460ff9091169082565b604080519215158352602083019190915201610318565b3480156106fc57600080fd5b50610336611f63565b34801561071157600080fd5b50610336610720366004613543565b611ff1565b34801561073157600080fd5b5061039b6107403660046137e1565b6120e9565b34801561075157600080fd5b5061039b612378565b34801561076657600080fd5b506103ae600f5481565b34801561077c57600080fd5b506103ae60115481565b34801561079257600080fd5b5061030c6107a1366004613856565b6001600160a01b03918216600090815260056020908152604080832093909416825291909152205460ff1690565b3480156107db57600080fd5b50610336612419565b3480156107f057600080fd5b5061039b6107ff3660046136c9565b612426565b34801561081057600080fd5b5061039b612551565b34801561082557600080fd5b5061039b6108343660046135d9565b612689565b600061084482612759565b92915050565b60606000805461085990613889565b80601f016020809104026020016040519081016040528092919081815260200182805461088590613889565b80156108d25780601f106108a7576101008083540402835291602001916108d2565b820191906000526020600020905b8154815290600101906020018083116108b557829003601f168201915b5050505050905090565b6000818152600260205260408120546001600160a01b031661095a5760405162461bcd60e51b815260206004820152602c60248201527f4552433732313a20617070726f76656420717565727920666f72206e6f6e657860448201526b34b9ba32b73a103a37b5b2b760a11b60648201526084015b60405180910390fd5b506000908152600460205260409020546001600160a01b031690565b600061098182611a57565b9050806001600160a01b0316836001600160a01b03161415610a0b5760405162461bcd60e51b815260206004820152602160248201527f4552433732313a20617070726f76616c20746f2063757272656e74206f776e6560448201527f72000000000000000000000000000000000000000000000000000000000000006064820152608401610951565b336001600160a01b0382161480610a275750610a2781336107a1565b610a995760405162461bcd60e51b815260206004820152603860248201527f4552433732313a20617070726f76652063616c6c6572206973206e6f74206f7760448201527f6e6572206e6f7220617070726f76656420666f7220616c6c00000000000000006064820152608401610951565b610aa38383612797565b505050565b610ab23382612812565b610b245760405162461bcd60e51b815260206004820152603160248201527f4552433732313a207472616e736665722063616c6c6572206973206e6f74206f60448201527f776e6572206e6f7220617070726f7665640000000000000000000000000000006064820152608401610951565b610aa3838383612909565b600a546001600160a01b03163314610b775760405162461bcd60e51b81526020600482018190526024820152600080516020613ae08339815191526044820152606401610951565b600d5460009060ff1615610bc65760405162461bcd60e51b8152602060048201526016602482015275151a194818dbdb9d1c9858dd081a5cc81c185d5cd95960521b6044820152606401610951565b806004811115610bd857610bd86137a3565b60165460ff166004811115610bef57610bef6137a3565b14610c4e5760405162461bcd60e51b815260206004820152602960248201527f5468697320616374696f6e206973206e6f7420616c6c6f77656420696e20746860448201526869732073746174757360b81b6064820152608401610951565b6001600160a01b0382166000908152600e602052604090205460ff16610cb65760405162461bcd60e51b815260206004820152601a60248201527f41646472657373206973206e6f742077686974656c69737465640000000000006044820152606401610951565b6001600160a01b0382166000818152600e6020526040808220805460ff19168155600101829055517f9354cd337eebad48c93d70f7321b188732c3061fa5c48fe32b8e6f9480c52fcc9190a25050565b600d5460029060ff1615610d555760405162461bcd60e51b8152602060048201526016602482015275151a194818dbdb9d1c9858dd081a5cc81c185d5cd95960521b6044820152606401610951565b806004811115610d6757610d676137a3565b60165460ff166004811115610d7e57610d7e6137a3565b14610ddd5760405162461bcd60e51b815260206004820152602960248201527f5468697320616374696f6e206973206e6f7420616c6c6f77656420696e20746860448201526869732073746174757360b81b6064820152608401610951565b8160008111610e2e5760405162461bcd60e51b815260206004820152601860248201527f6d696e696d756d206d696e7420616d6f756e74206973203100000000000000006044820152606401610951565b600f5460085410610e6c5760405162461bcd60e51b815260206004820152600860248201526714dbdb190813dd5d60c21b6044820152606401610951565b333214610ebb5760405162461bcd60e51b815260206004820152601760248201527f6f6e6c79206d696e74206f726967696e2077616c6c65740000000000000000006044820152606401610951565b601154831115610f0d5760405162461bcd60e51b815260206004820152601a60248201527f657863656564206d6178206d696e74207065722077616c6c65740000000000006044820152606401610951565b600f54600854610f1d90856138da565b1115610f6b5760405162461bcd60e51b815260206004820152601c60248201527f616d6f756e74206578636565642072656d61696e696e67206d696e74000000006044820152606401610951565b3483601254610f7a91906138f2565b1115610fc85760405162461bcd60e51b815260206004820152601160248201527f696e737566696369656e7420666f6e64730000000000000000000000000000006044820152606401610951565b60005b8381101561100557610fe1600c80546001019055565b610ff333610fee600c5490565b612aee565b80610ffd81613911565b915050610fcb565b50604051839033907f03504c294a263bdb2a84fae303527be6ac0fa4c271f02075b2162fd41d95882590600090a3505050565b600061104383611c07565b82106110b75760405162461bcd60e51b815260206004820152602b60248201527f455243373231456e756d657261626c653a206f776e657220696e646578206f7560448201527f74206f6620626f756e64730000000000000000000000000000000000000000006064820152608401610951565b506001600160a01b03919091166000908152600660209081526040808320938352929052205490565b600a546001600160a01b031633146111285760405162461bcd60e51b81526020600482018190526024820152600080516020613ae08339815191526044820152606401610951565b600d5460049060ff16156111775760405162461bcd60e51b8152602060048201526016602482015275151a194818dbdb9d1c9858dd081a5cc81c185d5cd95960521b6044820152606401610951565b806004811115611189576111896137a3565b60165460ff1660048111156111a0576111a06137a3565b146111ff5760405162461bcd60e51b815260206004820152602960248201527f5468697320616374696f6e206973206e6f7420616c6c6f77656420696e20746860448201526869732073746174757360b81b6064820152608401610951565b50600d805461ff001916610100179055565b600a546001600160a01b031633146112595760405162461bcd60e51b81526020600482018190526024820152600080516020613ae08339815191526044820152606401610951565b600d5460049060ff16156112a85760405162461bcd60e51b8152602060048201526016602482015275151a194818dbdb9d1c9858dd081a5cc81c185d5cd95960521b6044820152606401610951565b8060048111156112ba576112ba6137a3565b60165460ff1660048111156112d1576112d16137a3565b146113305760405162461bcd60e51b815260206004820152602960248201527f5468697320616374696f6e206973206e6f7420616c6c6f77656420696e20746860448201526869732073746174757360b81b6064820152608401610951565b6002600b5414156113835760405162461bcd60e51b815260206004820152601f60248201527f5265656e7472616e637947756172643a207265656e7472616e742063616c6c006044820152606401610951565b6002600b55476113d55760405162461bcd60e51b815260206004820152600c60248201527f42616c616e6365206973203000000000000000000000000000000000000000006044820152606401610951565b600a546040516001600160a01b03909116904780156108fc02916000818181858888f1935050505015801561140e573d6000803e3d6000fd5b50506001600b55565b610aa383838360405180602001604052806000815250611ed5565b600d5460019060ff16156114815760405162461bcd60e51b8152602060048201526016602482015275151a194818dbdb9d1c9858dd081a5cc81c185d5cd95960521b6044820152606401610951565b806004811115611493576114936137a3565b60165460ff1660048111156114aa576114aa6137a3565b146115095760405162461bcd60e51b815260206004820152602960248201527f5468697320616374696f6e206973206e6f7420616c6c6f77656420696e20746860448201526869732073746174757360b81b6064820152608401610951565b816000811161155a5760405162461bcd60e51b815260206004820152601860248201527f6d696e696d756d206d696e7420616d6f756e74206973203100000000000000006044820152606401610951565b600f54600854106115985760405162461bcd60e51b815260206004820152600860248201526714dbdb190813dd5d60c21b6044820152606401610951565b3332146115e75760405162461bcd60e51b815260206004820152601760248201527f6f6e6c79206d696e74206f726967696e2077616c6c65740000000000000000006044820152606401610951565b336000908152600e602052604090205460ff166116465760405162461bcd60e51b815260206004820152601760248201527f61646472657373206e6f742077686974656c69737465640000000000000000006044820152606401610951565b6010548311156116985760405162461bcd60e51b815260206004820152601a60248201527f657863656564206d6178206d696e74207065722077616c6c65740000000000006044820152606401610951565b336000908152600e60205260409020600101548311156117205760405162461bcd60e51b815260206004820152602660248201527f6e6f7420616c6c6f776564206d696e74206d6f7265207468616e20616d6f756e60448201527f74206c65667400000000000000000000000000000000000000000000000000006064820152608401610951565b348360135461172f91906138f2565b111561177d5760405162461bcd60e51b815260206004820152601160248201527f696e737566696369656e7420666f6e64730000000000000000000000000000006044820152606401610951565b336000908152600e602052604081206001015461179b90859061392c565b10156117e95760405162461bcd60e51b815260206004820152600b60248201527f6e6f206e656761746976650000000000000000000000000000000000000000006044820152606401610951565b336000908152600e60205260408120600101805485929061180b90849061392c565b90915550600090505b8381101561184e5761182a600c80546001019055565b61183c33611837600c5490565b612b08565b8061184681613911565b915050611814565b50604051839033907f5de1bf30ef597e495a31fa8fb6f676431eca3fed01c951b2559def80fa93fd0890600090a3505050565b600061188c60085490565b82106119005760405162461bcd60e51b815260206004820152602c60248201527f455243373231456e756d657261626c653a20676c6f62616c20696e646578206f60448201527f7574206f6620626f756e647300000000000000000000000000000000000000006064820152608401610951565b6008828154811061191357611913613943565b90600052602060002001549050919050565b600a546001600160a01b0316331461196d5760405162461bcd60e51b81526020600482018190526024820152600080516020613ae08339815191526044820152606401610951565b600d5460039060ff16156119bc5760405162461bcd60e51b8152602060048201526016602482015275151a194818dbdb9d1c9858dd081a5cc81c185d5cd95960521b6044820152606401610951565b8060048111156119ce576119ce6137a3565b60165460ff1660048111156119e5576119e56137a3565b14611a445760405162461bcd60e51b815260206004820152602960248201527f5468697320616374696f6e206973206e6f7420616c6c6f77656420696e20746860448201526869732073746174757360b81b6064820152608401610951565b8151610aa3906014906020850190613405565b6000818152600260205260408120546001600160a01b0316806108445760405162461bcd60e51b815260206004820152602960248201527f4552433732313a206f776e657220717565727920666f72206e6f6e657869737460448201527f656e7420746f6b656e00000000000000000000000000000000000000000000006064820152608401610951565b600a546001600160a01b03163314611b2a5760405162461bcd60e51b81526020600482018190526024820152600080516020613ae08339815191526044820152606401610951565b600d5460009060ff1615611b795760405162461bcd60e51b8152602060048201526016602482015275151a194818dbdb9d1c9858dd081a5cc81c185d5cd95960521b6044820152606401610951565b806004811115611b8b57611b8b6137a3565b60165460ff166004811115611ba257611ba26137a3565b14611c015760405162461bcd60e51b815260206004820152602960248201527f5468697320616374696f6e206973206e6f7420616c6c6f77656420696e20746860448201526869732073746174757360b81b6064820152608401610951565b50600f55565b60006001600160a01b038216611c855760405162461bcd60e51b815260206004820152602a60248201527f4552433732313a2062616c616e636520717565727920666f7220746865207a6560448201527f726f2061646472657373000000000000000000000000000000000000000000006064820152608401610951565b506001600160a01b031660009081526003602052604090205490565b600a546001600160a01b03163314611ce95760405162461bcd60e51b81526020600482018190526024820152600080516020613ae08339815191526044820152606401610951565b611cf36000612c63565b565b600a546001600160a01b03163314611d3d5760405162461bcd60e51b81526020600482018190526024820152600080516020613ae08339815191526044820152606401610951565b600d5460009060ff1615611d8c5760405162461bcd60e51b8152602060048201526016602482015275151a194818dbdb9d1c9858dd081a5cc81c185d5cd95960521b6044820152606401610951565b806004811115611d9e57611d9e6137a3565b60165460ff166004811115611db557611db56137a3565b14611e145760405162461bcd60e51b815260206004820152602960248201527f5468697320616374696f6e206973206e6f7420616c6c6f77656420696e20746860448201526869732073746174757360b81b6064820152608401610951565b50601091909155601155565b60606001805461085990613889565b600a546001600160a01b03163314611e775760405162461bcd60e51b81526020600482018190526024820152600080516020613ae08339815191526044820152606401610951565b600d5460009060ff16156119bc5760405162461bcd60e51b8152602060048201526016602482015275151a194818dbdb9d1c9858dd081a5cc81c185d5cd95960521b6044820152606401610951565b611ed1338383612cc2565b5050565b611edf3383612812565b611f515760405162461bcd60e51b815260206004820152603160248201527f4552433732313a207472616e736665722063616c6c6572206973206e6f74206f60448201527f776e6572206e6f7220617070726f7665640000000000000000000000000000006064820152608401610951565b611f5d84848484612d91565b50505050565b60158054611f7090613889565b80601f0160208091040260200160405190810160405280929190818152602001828054611f9c90613889565b8015611fe95780601f10611fbe57610100808354040283529160200191611fe9565b820191906000526020600020905b815481529060010190602001808311611fcc57829003601f168201915b505050505081565b6000818152600260205260409020546060906001600160a01b031661207e5760405162461bcd60e51b815260206004820152603060248201527f455243373231204d657461646174613a2055524920717565727920666f72206e60448201527f6f6e6578697374656e7420746f6b656e000000000000000000000000000000006064820152608401610951565b600260165460ff166004811115612097576120976137a3565b11156120d25760146120a883612e0f565b60156040516020016120bc939291906139f3565b6040516020818303038152906040529050919050565b60146040516020016120bc9190613a26565b919050565b600a546001600160a01b031633146121315760405162461bcd60e51b81526020600482018190526024820152600080516020613ae08339815191526044820152606401610951565b600d5460009060ff16156121805760405162461bcd60e51b8152602060048201526016602482015275151a194818dbdb9d1c9858dd081a5cc81c185d5cd95960521b6044820152606401610951565b806004811115612192576121926137a3565b60165460ff1660048111156121a9576121a96137a3565b146122085760405162461bcd60e51b815260206004820152602960248201527f5468697320616374696f6e206973206e6f7420616c6c6f77656420696e20746860448201526869732073746174757360b81b6064820152608401610951565b816122555760405162461bcd60e51b815260206004820152600c60248201527f4e6f2061646472657373657300000000000000000000000000000000000000006044820152606401610951565b60005b82811015611f5d57601054600e600086868581811061227957612279613943565b905060200201602081019061228e91906135d9565b6001600160a01b03166001600160a01b03168152602001908152602001600020600101819055506001600e60008686858181106122cd576122cd613943565b90506020020160208101906122e291906135d9565b6001600160a01b031681526020810191909152604001600020805460ff191691151591909117905583838281811061231c5761231c613943565b905060200201602081019061233191906135d9565b6001600160a01b03167f8a3be376fdc726be3f3cee8e59ba5698a268a9b59f69cdabcf06d2ec2c90658f60405160405180910390a28061237081613911565b915050612258565b600a546001600160a01b031633146123c05760405162461bcd60e51b81526020600482018190526024820152600080516020613ae08339815191526044820152606401610951565b600d805460ff8082161560ff19909216821790925542601781905560408051929093161515825260208201527fd2a642be310b5beefe5c50f8cee7f67d7210962579bb3c8154f0cfc36d96b220910160405180910390a1565b60148054611f7090613889565b600a546001600160a01b0316331461246e5760405162461bcd60e51b81526020600482018190526024820152600080516020613ae08339815191526044820152606401610951565b600d5460009060ff16156124bd5760405162461bcd60e51b8152602060048201526016602482015275151a194818dbdb9d1c9858dd081a5cc81c185d5cd95960521b6044820152606401610951565b8060048111156124cf576124cf6137a3565b60165460ff1660048111156124e6576124e66137a3565b146125455760405162461bcd60e51b815260206004820152602960248201527f5468697320616374696f6e206973206e6f7420616c6c6f77656420696e20746860448201526869732073746174757360b81b6064820152608401610951565b50601391909155601255565b600a546001600160a01b031633146125995760405162461bcd60e51b81526020600482018190526024820152600080516020613ae08339815191526044820152606401610951565b600d5460ff16156125e55760405162461bcd60e51b8152602060048201526016602482015275151a194818dbdb9d1c9858dd081a5cc81c185d5cd95960521b6044820152606401610951565b60165460ff1660048111156125fc576125fc6137a3565b6126079060016138da565b6004811115612618576126186137a3565b6016805460ff19166001836004811115612634576126346137a3565b02179055504260175560165460ff166004811115612654576126546137a3565b6040514281527fc71bede083c0a5c534596a0a4b0d99c36da65f2219bd1601e500298b4e277c8c9060200160405180910390a2565b600a546001600160a01b031633146126d15760405162461bcd60e51b81526020600482018190526024820152600080516020613ae08339815191526044820152606401610951565b6001600160a01b03811661274d5760405162461bcd60e51b815260206004820152602660248201527f4f776e61626c653a206e6577206f776e657220697320746865207a65726f206160448201527f64647265737300000000000000000000000000000000000000000000000000006064820152608401610951565b61275681612c63565b50565b60006001600160e01b031982167f780e9d63000000000000000000000000000000000000000000000000000000001480610844575061084482612f41565b6000818152600460205260409020805473ffffffffffffffffffffffffffffffffffffffff19166001600160a01b03841690811790915581906127d982611a57565b6001600160a01b03167f8c5be1e5ebec7d5bd14f71427d1e84f3dd0314c0f7b2291e5b200ac8c7c3b92560405160405180910390a45050565b6000818152600260205260408120546001600160a01b031661288b5760405162461bcd60e51b815260206004820152602c60248201527f4552433732313a206f70657261746f7220717565727920666f72206e6f6e657860448201526b34b9ba32b73a103a37b5b2b760a11b6064820152608401610951565b600061289683611a57565b9050806001600160a01b0316846001600160a01b031614806128dd57506001600160a01b0380821660009081526005602090815260408083209388168352929052205460ff165b806129015750836001600160a01b03166128f6846108dc565b6001600160a01b0316145b949350505050565b826001600160a01b031661291c82611a57565b6001600160a01b0316146129985760405162461bcd60e51b815260206004820152602560248201527f4552433732313a207472616e736665722066726f6d20696e636f72726563742060448201527f6f776e65720000000000000000000000000000000000000000000000000000006064820152608401610951565b6001600160a01b038216612a135760405162461bcd60e51b8152602060048201526024808201527f4552433732313a207472616e7366657220746f20746865207a65726f2061646460448201527f72657373000000000000000000000000000000000000000000000000000000006064820152608401610951565b612a1e838383612fdc565b612a29600082612797565b6001600160a01b0383166000908152600360205260408120805460019290612a5290849061392c565b90915550506001600160a01b0382166000908152600360205260408120805460019290612a809084906138da565b9091555050600081815260026020526040808220805473ffffffffffffffffffffffffffffffffffffffff19166001600160a01b0386811691821790925591518493918716917fddf252ad1be2c89b69c2b068fc378daa952ba7f163c4a11628f55a4df523b3ef91a4505050565b611ed1828260405180602001604052806000815250612fe7565b6001600160a01b038216612b5e5760405162461bcd60e51b815260206004820181905260248201527f4552433732313a206d696e7420746f20746865207a65726f20616464726573736044820152606401610951565b6000818152600260205260409020546001600160a01b031615612bc35760405162461bcd60e51b815260206004820152601c60248201527f4552433732313a20746f6b656e20616c7265616479206d696e746564000000006044820152606401610951565b612bcf60008383612fdc565b6001600160a01b0382166000908152600360205260408120805460019290612bf89084906138da565b9091555050600081815260026020526040808220805473ffffffffffffffffffffffffffffffffffffffff19166001600160a01b03861690811790915590518392907fddf252ad1be2c89b69c2b068fc378daa952ba7f163c4a11628f55a4df523b3ef908290a45050565b600a80546001600160a01b0383811673ffffffffffffffffffffffffffffffffffffffff19831681179093556040519116919082907f8be0079c531659141344cd1fd0a4f28419497f9722a3daafe3b4186f6b6457e090600090a35050565b816001600160a01b0316836001600160a01b03161415612d245760405162461bcd60e51b815260206004820152601960248201527f4552433732313a20617070726f766520746f2063616c6c6572000000000000006044820152606401610951565b6001600160a01b03838116600081815260056020908152604080832094871680845294825291829020805460ff191686151590811790915591519182527f17307eab39ab6107e8899845ad3d59bd9653f200f220920489ca2b5937696c31910160405180910390a3505050565b612d9c848484612909565b612da884848484613065565b611f5d5760405162461bcd60e51b815260206004820152603260248201527f4552433732313a207472616e7366657220746f206e6f6e20455243373231526560448201527131b2b4bb32b91034b6b83632b6b2b73a32b960711b6064820152608401610951565b606081612e4f57505060408051808201909152600181527f3000000000000000000000000000000000000000000000000000000000000000602082015290565b8160005b8115612e795780612e6381613911565b9150612e729050600a83613a48565b9150612e53565b60008167ffffffffffffffff811115612e9457612e946135f4565b6040519080825280601f01601f191660200182016040528015612ebe576020820181803683370190505b5090505b841561290157612ed360018361392c565b9150612ee0600a86613a5c565b612eeb9060306138da565b60f81b818381518110612f0057612f00613943565b60200101907effffffffffffffffffffffffffffffffffffffffffffffffffffffffffffff1916908160001a905350612f3a600a86613a48565b9450612ec2565b60006001600160e01b031982167f80ac58cd000000000000000000000000000000000000000000000000000000001480612fa457506001600160e01b031982167f5b5e139f00000000000000000000000000000000000000000000000000000000145b8061084457507f01ffc9a7000000000000000000000000000000000000000000000000000000006001600160e01b0319831614610844565b610aa38383836131bd565b612ff18383612b08565b612ffe6000848484613065565b610aa35760405162461bcd60e51b815260206004820152603260248201527f4552433732313a207472616e7366657220746f206e6f6e20455243373231526560448201527131b2b4bb32b91034b6b83632b6b2b73a32b960711b6064820152608401610951565b60006001600160a01b0384163b156131b257604051630a85bd0160e11b81526001600160a01b0385169063150b7a02906130a9903390899088908890600401613a70565b602060405180830381600087803b1580156130c357600080fd5b505af19250505080156130f3575060408051601f3d908101601f191682019092526130f091810190613aac565b60015b613198573d808015613121576040519150601f19603f3d011682016040523d82523d6000602084013e613126565b606091505b5080516131905760405162461bcd60e51b815260206004820152603260248201527f4552433732313a207472616e7366657220746f206e6f6e20455243373231526560448201527131b2b4bb32b91034b6b83632b6b2b73a32b960711b6064820152608401610951565b805181602001fd5b6001600160e01b031916630a85bd0160e11b149050612901565b506001949350505050565b6001600160a01b0383166132185761321381600880546000838152600960205260408120829055600182018355919091527ff3f7a9fe364faab93b216da50a3214154f22a0a2b415b23a84c8169e8b636ee30155565b61323b565b816001600160a01b0316836001600160a01b03161461323b5761323b8382613275565b6001600160a01b03821661325257610aa381613312565b826001600160a01b0316826001600160a01b031614610aa357610aa382826133c1565b6000600161328284611c07565b61328c919061392c565b6000838152600760205260409020549091508082146132df576001600160a01b03841660009081526006602090815260408083208584528252808320548484528184208190558352600790915290208190555b5060009182526007602090815260408084208490556001600160a01b039094168352600681528383209183525290812055565b6008546000906133249060019061392c565b6000838152600960205260408120546008805493945090928490811061334c5761334c613943565b90600052602060002001549050806008838154811061336d5761336d613943565b60009182526020808320909101929092558281526009909152604080822084905585825281205560088054806133a5576133a5613ac9565b6001900381819060005260206000200160009055905550505050565b60006133cc83611c07565b6001600160a01b039093166000908152600660209081526040808320868452825280832085905593825260079052919091209190915550565b82805461341190613889565b90600052602060002090601f0160209004810192826134335760008555613479565b82601f1061344c57805160ff1916838001178555613479565b82800160010185558215613479579182015b8281111561347957825182559160200191906001019061345e565b50613485929150613489565b5090565b5b80821115613485576000815560010161348a565b6001600160e01b03198116811461275657600080fd5b6000602082840312156134c657600080fd5b81356134d18161349e565b9392505050565b60005b838110156134f35781810151838201526020016134db565b83811115611f5d5750506000910152565b6000815180845261351c8160208601602086016134d8565b601f01601f19169290920160200192915050565b6020815260006134d16020830184613504565b60006020828403121561355557600080fd5b5035919050565b80356001600160a01b03811681146120e457600080fd5b6000806040838503121561358657600080fd5b61358f8361355c565b946020939093013593505050565b6000806000606084860312156135b257600080fd5b6135bb8461355c565b92506135c96020850161355c565b9150604084013590509250925092565b6000602082840312156135eb57600080fd5b6134d18261355c565b634e487b7160e01b600052604160045260246000fd5b600067ffffffffffffffff80841115613625576136256135f4565b604051601f8501601f19908116603f0116810190828211818310171561364d5761364d6135f4565b8160405280935085815286868601111561366657600080fd5b858560208301376000602087830101525050509392505050565b60006020828403121561369257600080fd5b813567ffffffffffffffff8111156136a957600080fd5b8201601f810184136136ba57600080fd5b6129018482356020840161360a565b600080604083850312156136dc57600080fd5b50508035926020909101359150565b600080604083850312156136fe57600080fd5b6137078361355c565b91506020830135801515811461371c57600080fd5b809150509250929050565b6000806000806080858703121561373d57600080fd5b6137468561355c565b93506137546020860161355c565b925060408501359150606085013567ffffffffffffffff81111561377757600080fd5b8501601f8101871361378857600080fd5b6137978782356020840161360a565b91505092959194509250565b634e487b7160e01b600052602160045260246000fd5b60208101600583106137db57634e487b7160e01b600052602160045260246000fd5b91905290565b600080602083850312156137f457600080fd5b823567ffffffffffffffff8082111561380c57600080fd5b818501915085601f83011261382057600080fd5b81358181111561382f57600080fd5b8660208260051b850101111561384457600080fd5b60209290920196919550909350505050565b6000806040838503121561386957600080fd5b6138728361355c565b91506138806020840161355c565b90509250929050565b600181811c9082168061389d57607f821691505b602082108114156138be57634e487b7160e01b600052602260045260246000fd5b50919050565b634e487b7160e01b600052601160045260246000fd5b600082198211156138ed576138ed6138c4565b500190565b600081600019048311821515161561390c5761390c6138c4565b500290565b6000600019821415613925576139256138c4565b5060010190565b60008282101561393e5761393e6138c4565b500390565b634e487b7160e01b600052603260045260246000fd5b8054600090600181811c908083168061397357607f831692505b602080841082141561399557634e487b7160e01b600052602260045260246000fd5b8180156139a957600181146139ba576139e7565b60ff198616895284890196506139e7565b60008881526020902060005b868110156139df5781548b8201529085019083016139c6565b505084890196505b50505050505092915050565b60006139ff8286613959565b8451613a0f8183602089016134d8565b613a1b81830186613959565b979650505050505050565b60006134d18284613959565b634e487b7160e01b600052601260045260246000fd5b600082613a5757613a57613a32565b500490565b600082613a6b57613a6b613a32565b500690565b60006001600160a01b03808716835280861660208401525083604083015260806060830152613aa26080830184613504565b9695505050505050565b600060208284031215613abe57600080fd5b81516134d18161349e565b634e487b7160e01b600052603160045260246000fdfe4f776e61626c653a2063616c6c6572206973206e6f7420746865206f776e6572a2646970667358221220ebbeeb24dc3a5dea4dd62fba7831924fd59b31cdf889d13f11a108ceb240c29d64736f6c63430008080033",
  "devdoc": {
    "kind": "dev",
    "methods": {
      "approve(address,uint256)": {
        "details": "See {IERC721-approve}."
      },
      "balanceOf(address)": {
        "details": "See {IERC721-balanceOf}."
      },
      "getApproved(uint256)": {
        "details": "See {IERC721-getApproved}."
      },
      "isApprovedForAll(address,address)": {
        "details": "See {IERC721-isApprovedForAll}."
      },
      "name()": {
        "details": "See {IERC721Metadata-name}."
      },
      "owner()": {
        "details": "Returns the address of the current owner."
      },
      "ownerOf(uint256)": {
        "details": "See {IERC721-ownerOf}."
      },
      "renounceOwnership()": {
        "details": "Leaves the contract without owner. It will not be possible to call `onlyOwner` functions anymore. Can only be called by the current owner. NOTE: Renouncing ownership will leave the contract without an owner, thereby removing any functionality that is only available to the owner."
      },
      "safeTransferFrom(address,address,uint256)": {
        "details": "See {IERC721-safeTransferFrom}."
      },
      "safeTransferFrom(address,address,uint256,bytes)": {
        "details": "See {IERC721-safeTransferFrom}."
      },
      "setApprovalForAll(address,bool)": {
        "details": "See {IERC721-setApprovalForAll}."
      },
      "symbol()": {
        "details": "See {IERC721Metadata-symbol}."
      },
      "tokenByIndex(uint256)": {
        "details": "See {IERC721Enumerable-tokenByIndex}."
      },
      "tokenOfOwnerByIndex(address,uint256)": {
        "details": "See {IERC721Enumerable-tokenOfOwnerByIndex}."
      },
      "tokenURI(uint256)": {
        "details": "See {IERC721Metadata-tokenURI}."
      },
      "totalSupply()": {
        "details": "See {IERC721Enumerable-totalSupply}."
      },
      "transferFrom(address,address,uint256)": {
        "details": "See {IERC721-transferFrom}."
      },
      "transferOwnership(address)": {
        "details": "Transfers ownership of the contract to a new account (`newOwner`). Can only be called by the current owner."
      }
    },
    "version": 1
  },
  "userdoc": {
    "kind": "user",
    "methods": {},
    "version": 1
  },
  "storageLayout": {
    "storage": [
      {
        "astId": 170,
        "contract": "contracts/NftMintStage.sol:NftMintStage",
        "label": "_name",
        "offset": 0,
        "slot": "0",
        "type": "t_string_storage"
      },
      {
        "astId": 172,
        "contract": "contracts/NftMintStage.sol:NftMintStage",
        "label": "_symbol",
        "offset": 0,
        "slot": "1",
        "type": "t_string_storage"
      },
      {
        "astId": 176,
        "contract": "contracts/NftMintStage.sol:NftMintStage",
        "label": "_owners",
        "offset": 0,
        "slot": "2",
        "type": "t_mapping(t_uint256,t_address)"
      },
      {
        "astId": 180,
        "contract": "contracts/NftMintStage.sol:NftMintStage",
        "label": "_balances",
        "offset": 0,
        "slot": "3",
        "type": "t_mapping(t_address,t_uint256)"
      },
      {
        "astId": 184,
        "contract": "contracts/NftMintStage.sol:NftMintStage",
        "label": "_tokenApprovals",
        "offset": 0,
        "slot": "4",
        "type": "t_mapping(t_uint256,t_address)"
      },
      {
        "astId": 190,
        "contract": "contracts/NftMintStage.sol:NftMintStage",
        "label": "_operatorApprovals",
        "offset": 0,
        "slot": "5",
        "type": "t_mapping(t_address,t_mapping(t_address,t_bool))"
      },
      {
        "astId": 1159,
        "contract": "contracts/NftMintStage.sol:NftMintStage",
        "label": "_ownedTokens",
        "offset": 0,
        "slot": "6",
        "type": "t_mapping(t_address,t_mapping(t_uint256,t_uint256))"
      },
      {
        "astId": 1163,
        "contract": "contracts/NftMintStage.sol:NftMintStage",
        "label": "_ownedTokensIndex",
        "offset": 0,
        "slot": "7",
        "type": "t_mapping(t_uint256,t_uint256)"
      },
      {
        "astId": 1166,
        "contract": "contracts/NftMintStage.sol:NftMintStage",
        "label": "_allTokens",
        "offset": 0,
        "slot": "8",
        "type": "t_array(t_uint256)dyn_storage"
      },
      {
        "astId": 1170,
        "contract": "contracts/NftMintStage.sol:NftMintStage",
        "label": "_allTokensIndex",
        "offset": 0,
        "slot": "9",
        "type": "t_mapping(t_uint256,t_uint256)"
      },
      {
        "astId": 7,
        "contract": "contracts/NftMintStage.sol:NftMintStage",
        "label": "_owner",
        "offset": 0,
        "slot": "10",
        "type": "t_address"
      },
      {
        "astId": 115,
        "contract": "contracts/NftMintStage.sol:NftMintStage",
        "label": "_status",
        "offset": 0,
        "slot": "11",
        "type": "t_uint256"
      },
      {
        "astId": 2204,
        "contract": "contracts/NftMintStage.sol:NftMintStage",
        "label": "_tokenIdCounter",
        "offset": 0,
        "slot": "12",
        "type": "t_struct(Counter)1863_storage"
      },
      {
        "astId": 2206,
        "contract": "contracts/NftMintStage.sol:NftMintStage",
        "label": "isPaused",
        "offset": 0,
        "slot": "13",
        "type": "t_bool"
      },
      {
        "astId": 2208,
        "contract": "contracts/NftMintStage.sol:NftMintStage",
        "label": "burnEnabled",
        "offset": 1,
        "slot": "13",
        "type": "t_bool"
      },
      {
        "astId": 2213,
        "contract": "contracts/NftMintStage.sol:NftMintStage",
        "label": "whiteListedAddress",
        "offset": 0,
        "slot": "14",
        "type": "t_mapping(t_address,t_struct(WhitelistData)2197_storage)"
      },
      {
        "astId": 2215,
        "contract": "contracts/NftMintStage.sol:NftMintStage",
        "label": "maxSupply",
        "offset": 0,
        "slot": "15",
        "type": "t_uint256"
      },
      {
        "astId": 2217,
        "contract": "contracts/NftMintStage.sol:NftMintStage",
        "label": "maxMintPerWalletWhite",
        "offset": 0,
        "slot": "16",
        "type": "t_uint256"
      },
      {
        "astId": 2219,
        "contract": "contracts/NftMintStage.sol:NftMintStage",
        "label": "maxMintPerWalletPublic",
        "offset": 0,
        "slot": "17",
        "type": "t_uint256"
      },
      {
        "astId": 2221,
        "contract": "contracts/NftMintStage.sol:NftMintStage",
        "label": "mintPricePublic",
        "offset": 0,
        "slot": "18",
        "type": "t_uint256"
      },
      {
        "astId": 2223,
        "contract": "contracts/NftMintStage.sol:NftMintStage",
        "label": "mintPriceWhite",
        "offset": 0,
        "slot": "19",
        "type": "t_uint256"
      },
      {
        "astId": 2225,
        "contract": "contracts/NftMintStage.sol:NftMintStage",
        "label": "uri",
        "offset": 0,
        "slot": "20",
        "type": "t_string_storage"
      },
      {
        "astId": 2228,
        "contract": "contracts/NftMintStage.sol:NftMintStage",
        "label": "baseExtension",
        "offset": 0,
        "slot": "21",
        "type": "t_string_storage"
      },
      {
        "astId": 2231,
        "contract": "contracts/NftMintStage.sol:NftMintStage",
        "label": "stage",
        "offset": 0,
        "slot": "22",
        "type": "t_enum(MintStage)2192"
      },
      {
        "astId": 2233,
        "contract": "contracts/NftMintStage.sol:NftMintStage",
        "label": "lastActivity",
        "offset": 0,
        "slot": "23",
        "type": "t_uint256"
      }
    ],
    "types": {
      "t_address": {
        "encoding": "inplace",
        "label": "address",
        "numberOfBytes": "20"
      },
      "t_array(t_uint256)dyn_storage": {
        "base": "t_uint256",
        "encoding": "dynamic_array",
        "label": "uint256[]",
        "numberOfBytes": "32"
      },
      "t_bool": {
        "encoding": "inplace",
        "label": "bool",
        "numberOfBytes": "1"
      },
      "t_enum(MintStage)2192": {
        "encoding": "inplace",
        "label": "enum NftMintStage.MintStage",
        "numberOfBytes": "1"
      },
      "t_mapping(t_address,t_bool)": {
        "encoding": "mapping",
        "key": "t_address",
        "label": "mapping(address => bool)",
        "numberOfBytes": "32",
        "value": "t_bool"
      },
      "t_mapping(t_address,t_mapping(t_address,t_bool))": {
        "encoding": "mapping",
        "key": "t_address",
        "label": "mapping(address => mapping(address => bool))",
        "numberOfBytes": "32",
        "value": "t_mapping(t_address,t_bool)"
      },
      "t_mapping(t_address,t_mapping(t_uint256,t_uint256))": {
        "encoding": "mapping",
        "key": "t_address",
        "label": "mapping(address => mapping(uint256 => uint256))",
        "numberOfBytes": "32",
        "value": "t_mapping(t_uint256,t_uint256)"
      },
      "t_mapping(t_address,t_struct(WhitelistData)2197_storage)": {
        "encoding": "mapping",
        "key": "t_address",
        "label": "mapping(address => struct NftMintStage.WhitelistData)",
        "numberOfBytes": "32",
        "value": "t_struct(WhitelistData)2197_storage"
      },
      "t_mapping(t_address,t_uint256)": {
        "encoding": "mapping",
        "key": "t_address",
        "label": "mapping(address => uint256)",
        "numberOfBytes": "32",
        "value": "t_uint256"
      },
      "t_mapping(t_uint256,t_address)": {
        "encoding": "mapping",
        "key": "t_uint256",
        "label": "mapping(uint256 => address)",
        "numberOfBytes": "32",
        "value": "t_address"
      },
      "t_mapping(t_uint256,t_uint256)": {
        "encoding": "mapping",
        "key": "t_uint256",
        "label": "mapping(uint256 => uint256)",
        "numberOfBytes": "32",
        "value": "t_uint256"
      },
      "t_string_storage": {
        "encoding": "bytes",
        "label": "string",
        "numberOfBytes": "32"
      },
      "t_struct(Counter)1863_storage": {
        "encoding": "inplace",
        "label": "struct Counters.Counter",
        "members": [
          {
            "astId": 1862,
            "contract": "contracts/NftMintStage.sol:NftMintStage",
            "label": "_value",
            "offset": 0,
            "slot": "0",
            "type": "t_uint256"
          }
        ],
        "numberOfBytes": "32"
      },
      "t_struct(WhitelistData)2197_storage": {
        "encoding": "inplace",
        "label": "struct NftMintStage.WhitelistData",
        "members": [
          {
            "astId": 2194,
            "contract": "contracts/NftMintStage.sol:NftMintStage",
            "label": "isWhiteListed",
            "offset": 0,
            "slot": "0",
            "type": "t_bool"
          },
          {
            "astId": 2196,
            "contract": "contracts/NftMintStage.sol:NftMintStage",
            "label": "allowedMints",
            "offset": 0,
            "slot": "1",
            "type": "t_uint256"
          }
        ],
        "numberOfBytes": "64"
      },
      "t_uint256": {
        "encoding": "inplace",
        "label": "uint256",
        "numberOfBytes": "32"
      }
    }
  }
}